:100000000C947F020C949C020C949C020C94612131
:100010000C949C020C949C020C949C020C949C02E8
:100020000C949C020C949C020C948E1F0C947620D1
:100030000C94431F0C949C020C949C020C949C0204
:100040000C949C020C949C020C949C020C949C02B8
:100050000C949C020C946A1F0C949C020C949C02BD
:100060000C949C020C949C020C949C020C949C0298
:100070000C949C020C949C020C949C020C949C0288
:100080000C949C020C949C020C949C020C949C0278
:100090000C949C020C949C020C949C020C949C0268
:1000A0000C949C020C949C020C949C020501098007
:1000B000A101850319012AB700150126B700950192
:1000C00075108100C0050C0901A101850419012AE0
:1000D000A002150126A002950175108100C005013E
:1000E0000906A1018506050719E029E71500250184
:1000F0009508750181020507190029EF15002501F2
:1001000095F075018102050819012905950575010C
:100110009102950175039101C005010906A1010530
:100120000719E029E7150025019508750181029559
:1001300001750881010507190029FF150026FF0038
:100140009506750881000508190129051500250186
:10015000950575019102950175039101C009023B56
:1001600000020100A0FA09040000010301010009D6
:100170002111010001224400070581030800010943
:100180000401000103000000092111010001226D9A
:100190000007058203200001120100020000000890
:1001A000534601000100010200010C0343006F00EF
:1001B00072006E0065000000100366006F006F00A3
:1001C0007300740061006E00000004030904000065
:1001D000000000000000000000000000000000001F
:1001E000000000000000000000000000000000000F
:1001F00000007E0F00D4FFFFFFC700000078000062
:100200000000000000002A2B280000000000000071
:1002100000000000000000000029000000002C1E6B
:100220003420212224342627252E362D3738271E28
:100230001F202122232425263333362E37381F044E
:1002400005060708090A0B0C0D0E0F1011121314E6
:1002500015161718191A1B1C1D2F3130232D3504A4
:1002600005060708090A0B0C0D0E0F1011121314C6
:1002700015161718191A1B1C1D2F3130354C00018B
:100280000101010101010101020202020202020256
:100290000203030303030303030404040404040428
:1002A00005050505050606060606070707070708EC
:1002B000080808090909090A0A0A0B0B0B0C0C0C9F
:1002C0000D0D0D0E0E0E0F0F0F1010111111121239
:1002D00013131414151516161717181819191A1AB6
:1002E0001B1B1C1D1D1E1E1F202021222223242417
:1002F000252626272829292A2B2C2D2D2E2F303153
:100300003232333435363738393A3B3C3D3E3F4064
:100310004142434445464748494A4C4D4E4F50514F
:100320005354555658595A5B5D5E5F616264656609
:1003300068696B6C6D6F7072737577787A7B7D7E90
:100340008082838587888A8C8E8F91939596989AE0
:100350009C9EA0A2A3A5A7A9ABADAFB1B3B5B7BAF8
:10036000BCBEC0C2C4C6C9CBCDCFD1D4D6D8DBDDCC
:10037000DFE2E4E7E9EBEEF0F3F5F8FAFDFF2B003E
:1003800014001A00080015001700E0000400160011
:10039000070009000A00E1001D001B00060019000B
:1003A0000500000000000000E30021522C002A009C
:1003B000130012000C0018001C00E600407E0F0025
:1003C0000E000D000B003900380237003600100017
:1003D0001100000000000000E20022522800290065
:1003E0004A0052004D004B002302E0005000510033
:1003F0004F004E002402E1001E021F0232002102C3
:1004000022020000000000000100010001004C0079
:1004100032003100380027022602340033002E0259
:100420002D0030022F023102417E25022E003000C5
:100430002F00000000000000010023520100000016
:1004400073000000AE00AC00AB0000000000000034
:10045000A800AA00A90000000000000000000000A1
:1004600000000000000000000100235201004C00C9
:10047000570026002500240000000000560023003D
:100480002200210000000000580020001F001E0074
:1004900027000000000000000100010001003A00F8
:1004A0003B003C003D003E003F0001000100010018
:1004B0000100010001000100010001000100010034
:1004C00001000000000000000100010001004500E3
:1004D00044004300420041004000010001000100CF
:1004E0000100010001000100010001000100010004
:1004F00001000000000000000100010001001124C3
:100500001FBECFEFDAE0DEBFCDBF12E0A0E0B1E06A
:10051000ECE3F7E402C005900D92A239B107D9F7D8
:1005200024E0A2E9B2E001C01D92A238B207E1F7CF
:100530000E94B71C0C9449230C9400009C01FB0101
:100540009A9581159F4130F42B31314029F481E097
:100550000995089580E0FCCF83E0FACF90933A04A8
:1005600080933904089590933C0480933B0408954C
:1005700021E030E002C0220F331F8A95E2F780911C
:100580003B0490913C04822B932B0E94B30208956C
:1005900021E030E002C0220F331F8A95E2F7209558
:1005A000309580913B0490913C04822393230E94D8
:1005B000B3020895983090F5863080F5E82FF0E08A
:1005C00086E0989FE00DF11D11248E2F877041E089
:1005D00001C0440F8A95EAF783E0F695E7958A957E
:1005E000E1F7EE0FFF1FEE0FFF1FE05FFB4F20E074
:1005F00030E070E05191DF01CB01022E02C09695F0
:1006000087950A94E2F78170819585278423852751
:100610008E932F5F3F4F2430310561F70895983056
:1006200078F5863068F5E82FF0E086E0989FE00DD9
:10063000F11D11249E2F977083E0F695E7958A951A
:10064000E1F7EE0FFF1FEE0FFF1FE05FFB4F40E0F3
:1006500050E080E0219130E0092E02C036952795C8
:100660000A94E2F721703327042E01C0220F0A9466
:10067000EAF7822B4F5F5F4F4430510559F70895D9
:1006800080E008958091420490914104981301C044
:1006900008958F5F8770FACF90913D0480958923EC
:1006A00080933D04282F277021110DC0891759F020
:1006B00090913F0492FF07C08695869586950E948B
:1006C000C80210923D040895809136049091400430
:1006D000892B50913704511591F09091420191303E
:1006E00021F490913E0497FD0BC096E026E932E09C
:1006F00040E0915048F4411110923704852B089541
:100700009EE12EE932E0F4CFF90161919F0161157C
:1007100081F34F5FEECF982F909580913604892317
:100720008093360408957830B8F46630A8F48430A5
:10073000B0F4E62FF0E096E0799FE00DF11D112472
:1007400090E3899FE00DF11D1124EE0FFF1FE25889
:10075000FC4F85919491089580E090E0089581E0A8
:10076000FCCF9C01803E910509F448C0D8F4813348
:10077000910509F47DC048F48932910509F46DC0F2
:100780008A9709F47CC0C90108958933910551F114
:100790008238910539F1C597B1F780913E0485FF04
:1007A000F2CF29C0843E910509F447C048F4823E47
:1007B000910599F1833E9105A9F121EE30E0E3CF57
:1007C000863E910509F444C0873E9105E1F680918B
:1007D0003E0483FD61C090913F0491FF2BC024EE45
:1007E00030E0D1CF80913E048370811152C080915E
:1007F0003F0483FFC8CF29E230E0C5CF80913E049B
:1008000080FD33C090913F0490FFBDCF23EE30E0D8
:1008100084FFB9CF20E030E0B6CF80913E0482FD66
:10082000F5CFB1CF80913E0482FD30C090913F045E
:1008300090FD2FC084FFA7CFEDCF80913F0481FFB3
:10084000A2CF80913E0427EE30E084FDE3CF9BCF22
:1008500080913E0483FDF7CF96CF80913E0485FDC5
:100860001EC080913F0483FF8ECF29E330E08BCF01
:1008700080913E0486FF87CF2AE230E084CF8091CA
:100880003E0486FF80CF21E330E07DCF22EE30E0D2
:100890007ACF20EE30E077CF26EE30E074CF25E33C
:1008A00030E071CF90913E0492FF10C041E0282FBC
:1008B0002471243009F040E031E0282F28712830DD
:1008C00009F030E0431711F02CE0822793FF10C0AD
:1008D00041E0282F2471243109F040E031E0282F35
:1008E0002871283109F030E0431711F02CE08227FD
:1008F00030913F0430FF10C051E0282F217121308A
:1009000009F050E041E0282F2871283009F040E03C
:10091000541711F029E0822731FF10C041E0282F41
:100920002171213109F040E031E0282F2871283170
:1009300009F030E0431711F029E0822794FD877E0B
:1009400008951F93CF93DF930E94B103EC018115AB
:1009500022E5920708F055C0811540E5940708F09C
:10096000D1C0803E910520F58D3C910508F0A4C0D2
:10097000883A910570F4853A910508F09AC0813063
:100980009105D1F10497813A9105B0F1C0E0D0E032
:1009900033C0885A91094B97C8F7C85AD0E0CC0F9A
:1009A000DD1FCA5DDD4F0990D881C02DD46424C0FD
:1009B000811550E49507C0F4C11580E2D80708F00E
:1009C000B7C0C83ED105C0F0CE019A9581159F41B0
:1009D000E8F68D2F0E945204182FCE0199270E940D
:1009E000B103EC01D12B08C099270E94B103CC2799
:1009F000DF70C82BD92BD06ACE01DF91CF911F9128
:100A00000895803842E59407C8F5803652E5950789
:100A100008F05BC0C03482E5D807D0F4C03292E55C
:100A2000D90708F04BC08C2F8695869520E2829FCF
:100A3000C0011124C37021E030E0A90102C0440FBD
:100A4000551FCA95E2F7EA01C82BD92BDD68D4CF30
:100A50008C2F86958695877050E2859FC001112462
:100A6000C37021E030E0A90102C0440F551FCA95B0
:100A7000E2F7EA01C82BD92BDC68BECF803C52E5F7
:100A8000950758F48F71C03AD245A0F590E0982FA1
:100A90008827EC01C46FD06AAFCF805C9245809705
:100AA00008F074CFDC2FCC27CC27DF71C06FD06A61
:100AB000A3CFA497D064A0CFD0659ECFCF71D0E054
:100AC000DC2FCC27C16FD06A97CF8695869587702B
:100AD00020E2829FC0011124C37021E030E0A9010F
:100AE00002C0440F551FCA95E2F7EA01C82BD92B63
:100AF000DA6882CF0E945204C82FD0E0DC2FCC27C6
:100B0000D0627ACF8F710E94520493E0CC0FDD1F28
:100B10009A95E1F7CC27DF70282F30E084FF04C0DE
:100B200050E1859F90011124C22BD32BD06964CF53
:100B30008D2F8F710E945204182FCE0199270E9489
:100B4000B103EC01D12BDCCFA0E0B0E0EAEAF5E0A4
:100B50000C9485228C01E0903B04F0903C04809141
:100B6000390490913A04E82AF92ACFE0D0E0CC2465
:100B7000C394D12CC6010C2E02C0880F991F0A9471
:100B8000E2F78E219F21892B49F4219798F7B12C08
:100B90008B2DCDB7DEB7E9E00C94A122BC2EB801B5
:100BA0008C2F0E9493030E94A104019771F3F0CF50
:100BB0000F931F93CF93FC018581008111818115D3
:100BC00091F0611581F0C8010E94A405C82F682F1B
:100BD000C8010E94DA02B8018C2F0E949303CF91C2
:100BE0001F910F910895C8010E940F03C82FF3CFE2
:100BF000CF93DF93D82FC92F0E94A4056D2F7C2F90
:100C00000E9493030E94A104DF91CF910895FC01FB
:100C100084818115A1F0808191810E94F805282F9F
:100C200092959F70963099F060F4925F9F70923029
:100C300030F4203FB1F038F481E0283E38F080E015
:100C400008959A5FF3CF81E0243FC9F7089591E0BA
:100C5000213F09F090E081E0283E08F080E0892BF8
:100C6000089581E0089580E00895F894E82FE295D2
:100C7000EF70F0E041A18F7021E030E0B90102C0D7
:100C8000660F771F8A95E2F7CB01962F90959423F4
:100C900091A392A1892B82A378940895FF920F9338
:100CA0001F93CF93DF93182F062FF42EC0E0D0E0D0
:100CB000CE012091DF03211103C0CB3108F04B9707
:100CC0002F2D402F612F0E94CE062196C633D105CD
:100CD00079F7CDB7DEB7E5E00C94A5229BE0899FBC
:100CE000802D1124980F973308F096E32091DF03AD
:100CF000211104C08B3128F48BE108959C3108F058
:100D00009BE10895EDE2F4E0808191E08927808302
:100D100010924401809135048160809335040895D8
:100D200080912D048370811551F0846080932D048F
:100D300010924401809135048160809335040895B8
:100D400080912D048370811551F0846080932D046F
:100D50001092440180913504816080933504089598
:100D6000EDE2F4E0248130E1230F08F42FEF248337
:100D7000809135048160809335040895EDE2F4E0BC
:100D8000248130E1231B08F420E024838091350482
:100D90008160809335040895539A0895FC01EE0F05
:100DA000FF1FE80FF91FED51FD4F61834083228340
:100DB00008958091DE03811559F0E0910604F091C9
:100DC0000704309729F00190F081E02D09950895EE
:100DD00080E00895A3E0B0E0E0EFF6E00C948C2210
:100DE0009C018091E1029091E20282179307A1F0A9
:100DF0003093E2022093E102E0910604F0910704AF
:100E0000309751F083E089833B832A830084F18506
:100E1000E02DCE01019609952396E2E00C94A822DC
:100E2000A3E0B0E0E6E1F7E00C948C229C01809115
:100E3000DF029091E00282179307A1F03093E00265
:100E40002093DF02E0910604F0910704309751F0FF
:100E500084E089833B832A830084F185E02DCE01E1
:100E6000019609952396E2E00C94A8229091420104
:100E7000913091F0A6E9B2E0EFEF90E02D9182176A
:100E800051F0EF3F19F4211101C0E92F9F5F963017
:100E9000A9F7EF3FC9F4089590913E0497FFEACF78
:100EA000E82FE695E695E695803FA8F7F0E0E45652
:100EB000FD4F877021E030E001C0220F8A95EAF7EC
:100EC0008281822B828308950E2E000CFF0BEC563C
:100ED000FD4FF8CF90914201913021F490913E0462
:100EE00097FD0CC0E6E9F2E09191891302C0DF01A1
:100EF0001E9252E0EC39F507B9F70895E82FE69510
:100F0000E695E695803FC8F7F0E0E456FD4F877020
:100F100021E030E0A90102C0440F551F8A95E2F795
:100F2000CA0180959281892382830895809141012D
:100F300008952FB7F8948091DB029091DC02A09184
:100F4000DD02B091DE022FBF08952FB7F8946091B3
:100F5000DB027091DC028091DD029091DE022FBFF6
:100F60000895CF92DF92EF92FF928091DE03811578
:100F700059F00E94A5076B017C01C701B601FF90E3
:100F8000EF90DF90CF9008950E94A507C090E003F6
:100F9000D090E103E090E203F090E303C60ED71E89
:100FA000E81EF91EEACF87E797E790930108809340
:100FB000000888E19AE00FB6F894A8958093600045
:100FC0000FBE90936000FFCF88E19AE00FB6F894CF
:100FD000A895809360000FBE90936000FFCF0895A6
:100FE000FC019B018091D1029091D2028617970754
:100FF00040F0672B29F48091E8008E778093E80019
:10100000C90140E0009741F4411106C08091E80019
:1010100082FF2FC080E0089520919A032115A9F145
:101020002530A9F12091E80023FD2DC02091E80092
:1010300022FDECCF2091E80020FFE4CF3091F300B7
:101040002091F200009719F02830310558F041E066
:101050002830310509F040E02091E8002E772093F8
:10106000E800D0CF41914093F10001972F5F3F4FAF
:10107000E9CF80919A03811541F0853041F080914C
:10108000E80083FFC3CF81E0089582E0089583E004
:1010900008958091CB0287FF13C08091E80082FF02
:1010A00006C08091E8008B778093E80008958091D6
:1010B0009A038111F2CF089580919A038115D9F393
:1010C0008091E80080FFF8CF8091E8008E77ECCF28
:1010D0002091E4003091E50095E6A9012091EC0013
:1010E000822F817020FF06C08091E80080FF06C03B
:1010F00080E008952091E80022FD1AC080919A03B3
:10110000811589F0853089F08091EB0085FD0FC055
:101110002091E4003091E50042175307F9F29A95C7
:10112000E1F684E0089582E0089583E0089581E087
:101130000895E8EDF0E080818E7F80831092E200D8
:101140001092DA001092E100A0EEB0E08C91816084
:101150008C9380818F77808319BCA7EDB0E08C9150
:101160008E7F8C9380818F7E80831092CA02089537
:10117000FC01AC014C5F5F4F8FEF61E391918927D8
:1011800028E030E0982F990F87FF09C0892F862724
:1011900021503040B9F7E417F50781F70895892FFA
:1011A000F7CF90912D049370911571F080932E04D8
:1011B00060932F04493708F048E74093300480914A
:1011C00035048160809335040895EDE2F4E0818177
:1011D00090E04381628108960E94D1080895EDE273
:1011E000F4E08181438162818850990B0E94D1088B
:1011F0000895EDE2F4E0628120E1620F08F46FEF00
:101200008181438190E00E94D1080895EDE2F4E0ED
:10121000628120E1621B08F460E08181438190E0FB
:101220000E94D1080895EDE2F4E0438120E1420FED
:1012300008F44FEF8181628190E00E94D108089507
:10124000EDE2F4E0438120E1421B08F440E08181BB
:10125000628190E00E94D1080895982F9093E90050
:10126000891771F07091EC002091ED005091F00021
:1012700021FD09C09F5F973089F78093E9000895A9
:10128000762F242F50E03091EB003E7F3093EB001F
:101290003091ED003D7F3093ED003091EB003160F7
:1012A0003093EB007093EC002093ED005093F0002E
:1012B0002091EE0027FDDECF0895A0E0B0E0E3E648
:1012C000F9E00C948622C8EDD0E088818F7E888377
:1012D000E7EDF0E080818160808384E082BF81E07F
:1012E0008093CA0288818E7F888302EE10E0F80125
:1012F00010821092DA0081EEC82ED12CF6011082F5
:1013000088818F77888388818068888388818F7DB2
:10131000888319BC10929A031092C9021092990303
:101320001092C80290EEE92EF12CF70180818B7F9C
:10133000808388818160888342E060E080E00E9451
:101340002D09F60180818E7F8083F8018081816084
:101350008083808188608083F70180818E7F808395
:10136000888180618883CDB7DEB7E8E00C94A22243
:101370003BB1377F2BB128604FB7F89483EE92E0F2
:10138000FC010196508168E02BB9000000C057FFB6
:101390003BB9550F000000C000C000C03BB900C001
:1013A0006A9591F753E08538950751F74FBF8FE560
:1013B00094E00197F1F700C0000008950F931F9388
:1013C000CF93DF938B01EA0190919A03943059F502
:1013D0008093E9008FEF9091E80095FD06C095EDB0
:1013E0009A95F1F700008A95B1F78091E80085FFA2
:1013F0001AC00E946808811111C08091E80085FD23
:1014000006C08091E8008E778093E800F2CFF80163
:1014100081918F018093F100219779F78091E80005
:101420008E778093E800DF91CF911F910F910895FF
:10143000CF93DF93D82FC92F48E050E0682F792F42
:1014400081E00E94DE0988E0ED2FFC2FA3EDB2E0E1
:1014500001900D928A95E1F7DF91CF910895BC013B
:1014600040E250E082E00E94DE090895BC0143E0C2
:1014700050E082E00E94DE090895A0E0B0E0E3E4DD
:10148000FAE00C948422182F092FB62EA72E7A0189
:101490008091B1039AE0C92ED12C8A3018F0CC2467
:1014A000C394D12CC1E0D0E06B2D7A2D812F902FE9
:1014B000F7010995811116C02196CC16DD0694F02E
:1014C000CC9FC001CD9F900D900D112420E030E005
:1014D00045E34A95F1F700002F5F3F4F2817390782
:1014E000B9F7E2CFCDB7DEB7EAE00C94A022909135
:1014F0003F0492FB222720F9281779F080FB92F90C
:1015000090933F0460913E0470913F0484E090E02A
:101510000E942D2382E00E944C03089560912A04CA
:101520008CE090E00E940F2308951092970384E0CE
:1015300080932A040E948E0A08958091420181308E
:1015400059F580913E0487FF27C00E946403809371
:101550009D0240E250E066EE73E08CE992E00E946A
:101560003323892BC1F080E2ECE9F2E0A6EEB3E090
:1015700001900D928A95E1F7E0910604F09107043D
:10158000309749F086E080939C020480F581E02D3D
:101590008CE992E0099508950E9464038093940277
:1015A00048E050E068E074E084E992E00E94332370
:1015B000892B89F388E0E4E9F2E0A8E0B4E0019047
:1015C0000D928A95E1F7E0910604F09107043097B7
:1015D00011F30280F381E02D84E992E0DBCF8115E5
:1015E00021F00E948B030E949D0A0895811541F00D
:1015F0008095909140048923809340040E949D0A25
:101600000895811539F090913604892B8093360422
:101610000E949D0A0895811539F090914004892B0C
:10162000809340040E949D0A0895CF93C82F81158E
:10163000D1F08CEF8C0F813AA0F58091420181307E
:1016400021F480913E0487FD10C0E6E9F2E081912B
:10165000C81709F122E0EC39F207C9F78C2F0E9474
:1016600036070E949D0ACF910895EC2FE695E695E6
:10167000E695F0E0E456FD4F828190E04C2F4770F4
:1016800021E030E002C0220F331F4A95E2F78223A7
:101690009323892B19F38C2F0E946A070E949D0ABD
:1016A000DDCF80E28C0F883068F4C77081E090E075
:1016B00001C0880FCA95EAF7C0913604C82BC093C1
:1016C0003604CFCF8BE58C0F833038F42C2F245287
:1016D000330BC9010E94EA06C6CFC85ACB3118F6AF
:1016E000EC2FF0E0EE0FFF1FE45AFD4F8081918157
:1016F0000E941007B8CF811539F19CEF980F913AED
:1017000028F40E946A070E949D0A089590E2980FAB
:10171000983050F4877091E001C0990F8A95EAF7EC
:10172000892F0E948B03EFCF9BE5980F933028F40D
:1017300080E090E00E94EA060895885A8B3120F4F8
:1017400080E090E00E94100708950F931F93CF93BD
:10175000DF93EC018B016BE07BE00E949E028C2FFB
:101760000E94150B0115110569F48C2F0E947B0B4B
:1017700066EF7AE0CE010E949E02DF91CF911F9129
:101780000F9108958FE99FE00197F1F700C00000E5
:1017900001501109E7CF0F931F93CF93C82F8B01EF
:1017A0000E94150B0115110539F48C2F0E947B0B3B
:1017B000CF911F910F9108958FE99FE00197F1F765
:1017C00000C0000001501109EDCF60E570E08933E1
:1017D00011F060E070E00E94CB0B0895EF92FF9251
:1017E0000F931F93CF93DF93C62FD42F122F811502
:1017F000A9F060932B040E9499079093C7028093ED
:10180000C602C77081E001C0880FCA95EAF70E943E
:10181000010BCDB7DEB7E6E00C94A42280912B0437
:10182000681332C0E090C602F090C7020E94990788
:101830008E199F09883C910538F500E20D0FCD17F0
:10184000A9F0C770FF24F3948F2D01C0880FCA95AB
:10185000EAF70E94EF0A083048F48D2F877001C024
:10186000FF0C8A95EAF78F2D0E94010B812F0E94B1
:10187000E50B083070F6D77081E001C0880FDA956B
:10188000EAF70E94EF0AC5CFC77081E001C0880F58
:10189000CA95EAF7F6CFA0E0B0E0E1E5FCE00C94F1
:1018A0008722E82FF0E0E250FE4FD490282F2695B3
:1018B0002695269530E0F901E251FE4F049187709C
:1018C00010E0082E02C0159507950A94E2F7017002
:1018D0001127F901E252FE4FE490F12C082E02C0CC
:1018E000F594E7940A94E2F7E0FAEE24FF24E0F896
:1018F000F901E253FE4FC491D0E002C0D595C795DF
:101900008A95E2F7C170DD270115110519F081EE06
:101910000E94150BE114F10419F086EE0E94150BDC
:1019200060E070E08D2D0E94CB0BE114F10419F002
:1019300086EE0E947B0B0115110519F081EE0E94C5
:101940007B0BCD2B19F08CE20E94E50BCDB7DEB7F7
:10195000E7E00C94A322109236048091420181307A
:10196000C1F480913E0487FF14C0EEE9F2E08EE1FD
:10197000DF011D928A95E9F780E090E00E94EA0677
:1019800080E090E00E941007109240040E949D0A9F
:101990000895E6E9F2E086E0EBCFA0E0B0E0E3ED09
:1019A000FCE00C947D228C01FC0184818115F1F115
:1019B00061E0C8010E94D805EC01F801858181151C
:1019C00009F449C0C034FEE7DF0789F0C1342EE7CF
:1019D000D20789F1809136048272FE01E053FC4700
:1019E000E830F105C0F5E55BFC4D0C94DB2282EE9E
:1019F0000E94150B89E50E94E50B8EE50E94E50B20
:101A00008CE50E94E50B82EE0E947B0B80913D04E9
:101A10008770811559F0F8018581811539F0809121
:101A20003F0482FF03C082E00E944C03CDB7DEB7C3
:101A3000E1E10C94992282EE0E94150B89E50E9447
:101A4000E50B8EE50E94E50B80E6DBCF811591F179
:101A50008FEF0E94950AF8015580511409F40CC1CA
:101A6000D7FF0AC14E01E89497F8A12CB12C0E942F
:101A7000D9068093290490912A04913029F481FF9A
:101A800003C089E30E94E50B80913604809328040B
:101A9000109236041092400480912A04823009F496
:101AA0006DC0D8F4811163C082EE0E94150B1BC07B
:101AB000811571F281E0CDCF10922A040E948E0A26
:101AC000CACF81E080932A04F9CF82E0FBCF83E084
:101AD000F9CF84E0F7CF85E0F5CF843009F462C018
:101AE000853009F464C0EFE3FCE93197F1F700C0F9
:101AF000000040902A043CE1C32ED12C47E0E42EA4
:101B0000F12C5AE0652E712CD501C4010C2C04C0B7
:101B1000B695A795979587950A94D2F7F82FFF70F9
:101B20003F2E511479F024E04212E5C43AE0F31755
:101B300008F4E1C480912A04823009F049C082E6A9
:101B40000E94E50B80912A04823009F045C09AE09A
:101B50008AEF830D391638F489E0830D90E0B301E4
:101B60000E94C722875A0E94E50B512CCBC460E02B
:101B700070E088E193E00E94A50BB5CF8091290425
:101B800080FD03C083E50E94E50B82EE0E94150BE9
:101B90008FE39CE90197F1F700C0000087E50E9400
:101BA000E50BA1CF86EE0E94E50B88E1F8CF60E05F
:101BB00070E08BE191E00E94A50B60E070E085E2AF
:101BC00090E00E94A50B60E070E088E290E0D3CF47
:101BD00080E30E944B0CB6CF86EF830D863028F051
:101BE00080E3830D0E944B0CC0CF87E5FACF843091
:101BF000D1F18530D1F18091280480933604F80129
:101C00009581911509F4A9C410922B049E013057B7
:101C10002332310508F08EC484E090E00E94F9225E
:101C200090933F0480933E04FE01E150F047E2327E
:101C3000F10508F04AC0ED5AFC4D0C94DB228CE211
:101C40000E94E50B8091290481FFD5CF89E30E9492
:101C5000E50BD1CF82EE0E947B0B8091290480FDA1
:101C6000CACF83E5F4CF88E2F2CF60E070E088E28B
:101C700090E00E94A50BBFCFFE01E851FC47E73082
:101C8000F10508F0BCCFEB58FC4D0C94DB2226E2AA
:101C900041EE61EE852D0E94EE0BB8CE27E245EEB7
:101CA00065EEF8CF26E241EE60EEF4CF27E245EE96
:101CB00064EEF0CF26E241EE62EEECCF27E245EE95
:101CC00066EEE8CF28E241E0EBCF80913E048160F0
:101CD00080933E0460913E0470913F0484E090E064
:101CE0000E942D230E94AB0C91CE80913F0488600E
:101CF00080933F04EFCF80913E048260E9CF8091D2
:101D00003E048460E5CF80913E048860E1CF8091FD
:101D10003F048160EDCF80913F048260E9CF8091E4
:101D20003E048061D5CF80913E048062D1CF809106
:101D30003E048064CDCF0E94AB0C80913E0480684D
:101D4000C7CF80913E048C60C3CF80913F048360F5
:101D5000CFCF80913E048E7FBBCF80913F04877FA1
:101D6000C7CF80913E048D7FB3CF80913E048B7F9F
:101D7000AFCF80913E04877FABCF80913F048E7FB1
:101D8000B7CF80913F048D7FB3CF80913E048F7E8B
:101D90009FCF80913E048F7D9BCF80913E048F7BAF
:101DA00097CF0E94AB0C80913E048F7791CF8091AA
:101DB0003E04837F8DCF80913F048C7F99CF8091AB
:101DC0003E04992782FF939590FB82F990FB83F95B
:101DD0007FCF80913F04982F909590FB80F990FBE6
:101DE00081F986CF90913E04892F8F7B96FF806486
:101DF0006FCF0E94AB0C90913E04892F97FB87F91F
:101E0000805866CF61E08EE090E00E940F2362CFA1
:101E100060E0F9CF90913E04892F8F7E94FF80611E
:101E200057CF90913E04892F8E7F90FF816050CFD5
:101E300090913F04892F877F93FF886059CF8A7ADA
:101E400091E0811101C090E090932C04811531F054
:101E500085E30E9436070E949D0AD8CD89E2F9CF1A
:101E600085E385C30E948206D1CD811509F449C05E
:101E70000E94A006CBCD811509F449C00E94EF084D
:101E8000C5CD811509F449C00E940609BFCD811551
:101E900009F449C00E942009B9CD811509F449C04F
:101EA0000E94BE06B3CD809136048272FE01E054DA
:101EB000F847ED30F10508F03FC0E458FC4D0C94B4
:101EC000DB2280912D048370811102C010924401A5
:101ED00080912D048C7F816080932D048091350446
:101EE00081608093350492CD80912D04837081119F
:101EF0001092440180912D048C7FEECF811509F45E
:101F0000B7CF0E94900682CD811509F4B7CF0E9409
:101F1000E5087CCD811509F4B7CF0E94F90876CD8C
:101F2000811509F4B7CF0E94130970CD811509F40A
:101F3000B7CF0E94B0066ACD9E01205E32452032A6
:101F40003105A8F491112AC0CF7181E090E09C0185
:101F500002C0220F331FCA95E2F7E901622F83E026
:101F600090E00E940F23CE010E94AE024FCD91154A
:101F7000A9F0CA353CE7D30709F4B2C008F075C030
:101F8000C1309CE7D90709F48EC0C330ECE7DE0707
:101F900009F496C0C115DC4709F478C0F8018581C1
:101FA000E080F180811509F49FC0C7010E94A4055B
:101FB000C82F682FC7010E94DA02B7018C2F0E9438
:101FC00093030E94A104D82FC92FF801D580C680A1
:101FD000C2942FE0C22280913D048770811501F1E7
:101FE000ED2CD114F1F0892F807F803461F080E2F4
:101FF0008D0F8830A8F0892F807E803221F4D23076
:1020000078F0C11469F080913F0482FF09C082E03A
:102010000E944C0380913D048770EE24E39481116B
:10202000E12C8C2F82958F70883009F44FC108F015
:102030007CC0843008F05DC0FC2FFF70FF2E823022
:1020400008F484C0C07FC03219F0F29480EFF82207
:10205000D11509F4B2C0D13009F4FBC0D11409F490
:1020600007C1C11409F4C7C087C0CB352CE7D2071C
:10207000C9F180913F04002482FF0394802DCC3568
:10208000DC4709F08BCF0E94770A88CF0E94AB0C07
:102090008FEF94E3ECE081509040E040E1F700C026
:1020A00000000E94D3070E94AB0CFFEF24E33CE04A
:1020B000F15020403040E1F700C000000E94E407EA
:1020C0006FEF7FEF80E090E00E942D230E94AB0C29
:1020D0008FEF94E3ECE081509040E040E1F7ECCFEB
:1020E00081E0D1CF80E0CFCFC7010E940F03C82F7E
:1020F00064CF843009F4CDC0E11409F41EC180918D
:102100003D0480FD1AC1F801158286958695869555
:102110000E94B802C8010E94CD0C80913D048695B2
:10212000869586950E94C80208C1893009F45EC16F
:102130008A5F8F70823000F7D23F09F068C18C2F20
:102140008F71D11061C10E94B802F5C0C03118F082
:10215000F29490EFF922D114B9F0F11469F080E211
:102160008D0F883010F0D11109C0809136048F296D
:10217000809336040E949D0A8D2F2FC080914004C9
:102180008F2980934004F6CF8D2F0E947B0BF11492
:1021900009F4B2CF80E28D0F883010F0D11104C065
:1021A0008F2D0E948B0306C0F094809140048F21F4
:1021B000809340040E949D0A9FCF80913F0482FD3E
:1021C00016C0D11469F0F11439F0809136048F29CA
:1021D000809336040E949D0A80E00E94150B8CCFEC
:1021E00080E00E947B0BF11409F486CFD9CFD11483
:1021F000A1F0C11004C08F2D0E94010B7DCF21E002
:10220000C2127ACF809137049F2D9823F91609F4D2
:1022100073CF8F29809337046FCFC1106DCF8F2D6F
:102220000E94EF0A909137048F2D8923811529F0A0
:102230008F2D8095892380933704809138049F2DBA
:102240009823911509F458CFF094F822F0923804AD
:1022500053CFD11429F036E0C31608F04DCFCBCFC1
:1022600085E0C81608F048CF8F2D0E94EF0A44CFB2
:10227000C114D1F3D93349F49FEFE7EEF3E0915065
:10228000E040F040E1F700C000008D2F0E947B0B82
:1022900033CF8C2F869586958370811569F08130B8
:1022A00009F02ACF8D2F9C2F9370D11002C080E0AF
:1022B00090E00E94100720CF8D2F9C2F9370D1109B
:1022C00002C080E090E00E94EA0616CF8C2F837057
:1022D000811146C0D1102FC04D2F429546954770B1
:1022E000440F440F2D2F2F7030E0042E02C0220F18
:1022F000331F0A94E2F780E090E0D4FF09C08FE03A
:1023000090E002C0880F991F4A95E2F7809590955A
:10231000C695C695C370C230D1F0C330A9F04091C4
:10232000390450913A04C13069F0822B932B8423F5
:1023300095230E94AE020E94D90660E0C8010E9467
:10234000D80574CB242B352B822B932BF2CF822BE9
:10235000932B2091390430913A0482279327E9CFB7
:10236000D11491F1C0FFE7CF4D2F429546954770AC
:10237000440F440F2D2F2F7030E0042E02C0220F87
:10238000331F0A94E2F780E090E0D4FF09C08FE0A9
:1023900090E002C0880F991F4A95E2F780959095CA
:1023A000C695C695C370C230C1F0C33099F0409154
:1023B0003B0450913C04C13059F0822B932B842371
:1023C00095230E94B302B7CF823008F4B4CFCCCFAC
:1023D000242B352B822B932BF4CF822B932B209104
:1023E0003B0430913C0482279327EBCFCF70D1146C
:1023F00039F08C2F0E94B8028D2F0E94010B9BCFC9
:102400008D2F0E94EF0A8C2F0E94C80294CF70F487
:10241000D03FC9F0D13F91F0D11409F458C0C11494
:1024200009F452C08D2F0E94150B85CFD33F29F19F
:10243000D43F91F790913F0492FD2DC08C2F8F7166
:10244000D11411F380CED114A9F025E0C21608F002
:1024500072CFCF7181E090E0FC0102C0EE0FFF1F50
:10246000CA95E2F7EF0180913B0490913C048E27DE
:102470009D27A7CFF6E0CF16EACF80E090E0D114F9
:1024800009F49FCFCF7181E090E002C0880F991FBF
:10249000CA95E2F796CFD11461F08C2F8F7192FF1D
:1024A00052CE982F990F990F990F936090933D04F6
:1024B0004ACE81E00E944C0322E0C21608F43BCFD2
:1024C00082E00E944C0337CF8C2F8F713CCEC11419
:1024D00079F0D93349F43FEF87EE93E031508040F3
:1024E0009040E1F700C000008D2F0E947B0B23CFAE
:1024F0008C2F8F7189CF311025CB84E0E816F10441
:102500000CF420CBE1E0EE1AF108F4E0CF1AD10888
:102510002FEFE216F20609F0F7CA80912A04823002
:1025200009F498CB08F063CB811189CB82EE0E942D
:102530007B0B61CB80913604C631FCE7DF0709F4E1
:102540007ECC8272FE01E052F847EB30F10508F0D4
:10255000F3CCE757FC4D0C94DB22C6312CE7D207B5
:1025600009F0A1CC80912C0481117ACC89E20E94DF
:102570006A0771CC80918104803178F48091800465
:10258000811559F0E09142042091410430917C047E
:1025900040917B0457E02E1301C008956E2F70E028
:1025A0005E9FF0011124DF01AD5BBB4F14968C914F
:1025B0001497811561F111968C911197831327C09F
:1025C0008C91841324C015968C91159781111FC08E
:1025D00012968D919C91A0917D04B0917E048A1BEE
:1025E0009B0B883C910598F4809181048F708061E9
:1025F00080938104E75BFB4F80818F7080618083D3
:102600008BE794E00E94CD0C0E9442030895FB01E9
:102610003196E770C0CFADE0B0E0E1E1F3E10C94BA
:1026200082228C0186E0F801DE01189601900D925D
:102630008A95E1F7D8011596DC9015971496FC90D1
:1026400014978BE7882E84E0982EC0907F04C110E9
:1026500020C0F114D9F0D11409F454C1C8010E946A
:102660000706811509F44EC187E0F801D4010190F5
:102670000D928A95E1F7B1E0FB1206C080917B04D0
:1026800090917C040E94F8050E94BA12FF24F394F2
:1026900035C0F8019081A280B380E0908004209141
:1026A0007D0430917E04A501421B530BE11409F413
:1026B000FAC0483C510508F0D9C0F11439F3309103
:1026C0007C04218180918104803108F094C0FD2C2C
:1026D000231319C030917B04391315C0D11085C064
:1026E0008F708061809381048BE794E00E94CD0C11
:1026F00080918104D80116968C93F12C8F2D2D9604
:10270000ECE00C949E22D11070C0E09142048091C4
:102710004104AE2F37E0A81317C037E08E1337C03F
:10272000888599850E94F805292F22952F7090346D
:1027300008F441C02A5F2F70223008F450C0C8014D
:102740000E94CD0CFE2CDACF4A2F50E03A9FD001E8
:102750001124AD5BBB4F11966C911197261307C0E6
:102760006C91961304C015966C91611104C0DA0146
:102770001196A770D0CF8BE794E00E94CD0C87E034
:10278000EBE7F4E0DF011D928A95E9F7B6CF4E2F13
:1027900050E03E9FF0011124ED5BFB4F6181261359
:1027A00006C06081961303C065816111A6CFFA014E
:1027B0003196E770B3CF9F70223038F0911551F009
:1027C000F8019681903130F499CF911519F0811567
:1027D00009F494CF805E883008F490CFB0CF803F6A
:1027E00008F48CCF815F8330F7CF809181048160C2
:1027F0008093810482CF231314C020917B0429137A
:1028000010C0D1100EC016968C93C8010E94CD0C3A
:1028100087E0F801ABE7B4E001900D928A95E1F70B
:1028200035CFC8010E940706811509F46BC0D11489
:1028300009F468C080918104803278F020917B0493
:1028400030917C043A832983BC82AB82CD821E8284
:102850008F83CE0101960E94CD0C87E0F801ABE793
:10286000B4E001900D928A95E1F70ECF809181043A
:10287000803108F480CFF11409F408CF30917C0442
:1028800021813213CECF20917B042913CACFD110DE
:10289000C8CF8683C8010E94CD0C87E0D4011D9269
:1028A0008A95E9F7F3CE483C510580F5F11409F417
:1028B000EDCED11439F120917C048181281318C008
:1028C00080917B04891314C08091810480FDA0CF86
:1028D000803108F49DCF8683807F803F09F495CFB7
:1028E0008681982F907F905F8F70892B86838DCF04
:1028F000C8010E9407068111B0CF809181048160D8
:1029000080938104C8010E94CD0CC0CE87E0D40121
:102910003ACFABE1B0E0EFE8F4E10C948A224E8BC1
:102920005F8B688F798F8A8F192F9B8F91111092EF
:1029300040041D8A86E0FE017696DE011F96019016
:102940000D928A95E1F70A8D011561F00B8B1C8BB6
:1029500061E0CE010F960E94D80561E0CE010F968E
:102960000E94D8050B8B1C8B87E0FE013F96DE0191
:10297000189601900D928A95E1F7CE0108960E9473
:102980000B13811128C0209141043091420487E04B
:10299000FE013896DE01119601900D928A95E1F7BD
:1029A0008C858115C1F0822F90E001968770992760
:1029B00038171906D9F097E0929FD0011124AD5B2A
:1029C000BB4FFE01319601900D929A95E1F78093ED
:1029D00041040E94420317E0809142049091410417
:1029E000891312C06B96E4E00C94A6220E94AB0CF3
:1029F000109241041092420487E0EBE7F4E0DF011B
:102A00001D928A95E9F7E7CF189FC00111248D5BCD
:102A10009B4F0E940B13811529F38091420490E093
:102A200001968770992780934204D6CFA6E0B0E044
:102A3000ECE1F5E10C948A220E9499078C018091C7
:102A4000E4039091E5038017910779F019821A82C7
:102A50000E949907BC0149815A8180E090E00E9460
:102A600089141093E5030093E4032696E4E00C94A4
:102A7000A622AAE2B0E0EFE3F5E10C948B228BEC06
:102A800092E0FC0101962091F100208322E0833D39
:102A90009207B9F78091CC02893009F45AC0C8F482
:102AA000823009F4B6C0833009F485C0813091F1D9
:102AB0008091E80083FFEAC08091CB029091CC0224
:102AC0009A3008F0E3C0E92FF0E0EC56FC4D0C948E
:102AD000DB228A3009F48CC08B3051F78091CB0215
:102AE000813231F78091CF029091D002892B01F78A
:102AF0008091E800877F8093E8000E94490881E088
:102B00009091CD02911101C080E0809342010E941A
:102B1000AB0CCECF8091CB02813A51F68091E80088
:102B2000877F8093E8008091CF029091D002892B1B
:102B300061F060E080E090E070E00E94F00780913A
:102B4000E8008B778093E800B3CF68E083ED92E0F4
:102B5000F3CF8091CB02813209F0AACF8091CF02CE
:102B60009091D002029708F0A3CF8091E800877F70
:102B70008093E8008091E80082FF18C09091F300F4
:102B80008091F200029731F48091F100813011F0D0
:102B9000863021F48091F100809341018091E8001A
:102BA0008B778093E8000E94490882CF80919A0336
:102BB0008111E0CF7DCF8091CB02813A09F078CFAF
:102BC0008091CF029091D002892B09F071CF809132
:102BD000E800877F8093E8008091E80080FFFCCFC9
:102BE000809142018093F1008091E8008E77D9CFE7
:102BF0008091CB02813209F05BCF8091E800877F22
:102C00008093E8000E9449088091CE0280934001A1
:102C10004FCF8091CB02813A09F04ACF8091E800F2
:102C2000877F8093E8008091E80080FFFCCF80914F
:102C30004001D8CF803889F0823841F58091CF02A9
:102C40008F70873018F58093E9008091EB0085FB49
:102C5000882780F91092E90006C080919903880FB7
:102C60009091C802892B9091E800977F9093E8009B
:102C70008093F1001092F1008091E8008E7723C0DC
:102C8000811116C08091CD02813011F18091E80050
:102C900083FF0AC08091E800877F8093E8008091DD
:102CA000EB0080628093EB00AA96E3E00C94A722ED
:102CB000823061F78091CD02811589F01092E90090
:102CC0008091E800877F8093E8000E944908DECF6A
:102CD00081E0933009F080E080939903EFCF8091F9
:102CE000CF028F702FEF280F263080F68093E900F7
:102CF0002091EB0020FFE2CF933031F48091EB0084
:102D000080628093EB00DACF9091EB00906190931A
:102D1000EB0021E030E0A90102C0440F551F8A9565
:102D2000E2F74093EA001092EA008091EB0088609D
:102D3000E8CF8111ABCF1091CD021F778091E300D6
:102D40008078812B8093E3008091E800877F8093D7
:102D5000E8000E9449088091E80080FFFCCF809144
:102D6000E30080688093E30083E0111101C082E0FA
:102D700080939A038BCF8058823008F087CF2091C0
:102D8000CD023091CE022C3D53E0350799F583E01A
:102D90008A838AE289834FB7F894DE01139620E094
:102DA0003EE051E2E32FF0E050935700849120FF82
:102DB00003C082958F703F5F8F708A30C8F0895C46
:102DC00090E08D939D932F5F243161F74FBF8091E9
:102DD000E800877F8093E8006AE270E0CE01019608
:102DE0000E94F0078091E8008B778093E8004ECF37
:102DF000805DE6CF832F99278330910529F160F418
:102E00008130910509F476C0029709F03FCF8BE33A
:102E100090E0EDE5F1E02DC02091CF023091D0029D
:102E20008132910509F45AC0829709F02FCF2115FC
:102E3000310509F469C02130310509F027CF8DE64D
:102E400090E0ECEAF0E015C0C90199272130B1F11A
:102E50008230910509F43AC0892B09F017CFEAECCA
:102E6000F1E0E4918E2F90E0EAECF1E0009709F4B4
:102E70000DCF2091E800277F2093E8002091D10218
:102E80003091D2028217930708F49C0140E021158B
:102E9000310509F03EC041113CC08091E80082FD3F
:102EA000A1CF80919A03811509F49CCF853009F454
:102EB00099CF8091E80083FFF0CF94CFE8EBF1E069
:102EC000E4918E2F90E0E8EBF1E0D0CFEAEAF1E078
:102ED000E4918E2F90E0EAEAF1E0C8CF21153105A8
:102EE00071F02130310509F0D1CE89E090E0E8E8B9
:102EF000F1E0BFCF82E190E0E8E9F1E0BACF89E00C
:102F000090E0EFE6F1E0B5CF84E490E0E9E1F1E0B4
:102F1000B0CF80919A03811509F464CF853009F40C
:102F200061CF8091E80083FD5DCF8091E80082FD54
:102F3000B4CF8091E80080FFAACF9091F3008091F8
:102F4000F2002115310519F08830910550F041E06B
:102F5000089709F040E08091E8008E778093E800C0
:102F600096CF44914093F10031962150310901965A
:102F7000E8CF803809F08ACE8091E800877F80937F
:102F8000E8008091C9028093F10076CE81117ECE57
:102F90001091CD02123008F079CE8091E800877F41
:102FA0008093E8001093C9020E9449081115A9F006
:102FB00084E080939A0342E061EC81E00E942D0955
:102FC00042E261EC82E00E942D0980919A038430F4
:102FD00051F482E08093430159CE8091E30087FD54
:102FE000E7CF81E0E6CF81E0F5CFACE0B0E0EBEFFA
:102FF000F7E10C947F22FE01319688E0DF011D92FB
:103000008A95E9F78AE1E82E82E0F82E8F013F01E8
:10301000AA24A394B12C24E2822E22E0922EF7015E
:1030200081917F018F3F09F43EC0F894E82FE2952B
:10303000EF70F0E021A18F70A50102C0440F551F71
:103040008A95E2F7CA01922F982B91A392A18095BD
:10305000892382A3789400C0EEE1F2E031E0512CA4
:1030600021912F3F79F0A22FA295AF70A05EB0E022
:103070008C9190E02F7002C0959587952A95E2F784
:1030800080FF93C080E0582A330F8E169F0641F7C9
:10309000F70182918F3F11F00E94350650EA5A9550
:1030A000F1F7D8015C920F5F1F4FBEE1EB16B2E063
:1030B000FB0609F0B4CF48E050E0B3018DE893E09F
:1030C0000E9433236C01892B41F088E0F301ADE8C5
:1030D000B3E001900D928A95E1F70091960310E01C
:1030E00005561C4FC114D10409F461C081E08093DE
:1030F000C5020E9499079093C4028093C3028091F5
:10310000DE03811509F4AEC07E01E9E0EE0EF11C8C
:1031100084E0D7011D928A95E9F78091B1038A3046
:1031200008F069C04EE55AE1B701C8010E943D0AA6
:10313000811509F485C04FE25AE1B701C8010E9428
:103140003D0A811509F47CC043EF5AE1B701C8017B
:103150000E943D0A811509F473C04EE35AE1B7019C
:10316000C8010E943D0A811509F46AC046E35BE18B
:10317000B701C8010E943D0A811509F461C010928F
:10318000B1038091950390E044E050E0B70185568B
:103190009C4F0E94332321E02093C202892B09F027
:1031A00041C02C96EFE00C949B22832F6CCF809132
:1031B000C502811509F4A3CFE090C302F090C402C8
:1031C0000E9499078E199F09059708F498CF44E04B
:1031D00050E06DE873E0C8010E943323892B41F071
:1031E00084E0EDE8F3E0D80101900D928A95E1F7D3
:1031F0001092C50284CFC090C002D090C1020E943C
:1032000099078C199D09843F914008F08BCF8091DC
:10321000C202811531F284E0F70111928A95E9F733
:103220001092C202E0919503F0E0E556FC4F8985CB
:103230009A85AB85BC8580839183A283B383B1CF0C
:103240008091B1038F3F39F40E9499079093C10296
:103250008093C002DCCF8F5F8093B1038A3008F483
:1032600090CFF2CFE0909503F12CA70145565C4F2B
:103270007A01F80180819181A281B3818093C80392
:103280009093C903A093CA03B093CB0388EC93E057
:103290000E94B8088093C7038091CC039091CD031E
:1032A000A091CE03B091CF03F70180839183A283D5
:1032B000B383C090D003D090D103E090D203F090BC
:1032C000D3038091BC029091BD02A091BE02B09147
:1032D000BF02C816D906EA06FB06B1F0C092BC02CE
:1032E000D092BD02E092BE02F092BF020E94A507FA
:1032F000C61AD70AE80AF90AC092E003D092E1039D
:10330000E092E203F092E30388E0E4EDF3E0ADE263
:10331000B4E001900D928A95E1F78091DD038093EE
:10332000B2033FCFA0E0B0E0E8E9F9E10C948622D7
:10333000FA0169017801C82F880FDD0B3097B9F0C9
:10334000DE0193E0AA0FBB1F9A95E1F7A05FBE4F85
:1033500011968D919C91129789539C4F2C91422FDD
:1033600050E0E217F10508F4AF010E944023CE01BE
:103370000E940822182F8115D9F0E114F104C1F040
:1033800083E0CC0FDD1F8A95E1F7FE01E05FFE4F81
:103390008381482F50E0E816F10408F4A701C05FCC
:1033A000DE4F6C817D8169537C4FC6010E944023B2
:1033B000812FCDB7DEB7E8E00C94A2224F925F9246
:1033C0006F927F928F929F92BF92CF92DF92EF92F5
:1033D000FF920F931F93CF93DF93B82E6B01D42FDF
:1033E000C52FB9017801A8018D2F9C2F0E9433238E
:1033F0004C01F60140805180628073800E94A507D5
:103400006419750986099709643671058105910566
:1034100010F4892899F000E010E020E030E0A701E6
:103420006D2F7C2F8B2D0E949219811541F00E94E7
:10343000A507F601608371838283938381E0DF9126
:10344000CF911F910F91FF90EF90DF90CF90BF90A1
:103450009F908F907F906F905F904F9008950F9303
:103460001F93AC0104E010E02CEC33E06BEB73E055
:1034700082E00E94DE191F910F910895A9E0B0E04B
:10348000E4E4FAE10C948A2288E0EDE2F4E0DE0163
:10349000119601900D928A95E1F7198609E010E0E6
:1034A00024ED33E0AE014F5F5F4F63EB73E084E0E8
:1034B0000E94DE192996E4E00C94A6228F929F9236
:1034C000AF92BF92DF92EF92FF920F931F93CF9331
:1034D000DF9300D000D00F92CDB7DEB77B0101E0C3
:1034E00010E09E012B5F3F4F40E050E060E070E055
:1034F00080E00E949219182F811509F447C080902E
:10350000C3039090C403A090C503B090C6030E946B
:10351000A507DD80681979098A099B096436710558
:103520008105910530F488EC93E00E94B8088D1570
:1035300069F104E010E09E012F5F3F4F40E050E052
:1035400060E070E081E00E949219182F88EC93E00F
:103550000E94B8088D1128C0111531F10E94A507ED
:103560006093C3037093C4038093C5039093C60311
:1035700089819A81AB81BC818093BF039093C00302
:10358000A093C103B093C20381E00FC08091C80330
:103590009091C903A091CA03B091CB0389839A8308
:1035A000AB83BC831111E4CF80E04091BF03509105
:1035B000C0036091C1037091C203F701408351833E
:1035C000628373830F900F900F900F900F90DF9195
:1035D000CF911F910F91FF90EF90DF90BF90AF9030
:1035E0009F908F900895A4E0B0E0E9EFFAE10C9489
:1035F0008622C090B703D090B803E090B903F09052
:10360000BA030E94A5076C197D098E099F0911E074
:10361000643671058105910520F10E94B107DC0136
:10362000CB010296A11DB11D89839A83AB83BC8314
:1036300000E010E020E030E044E050E0BE016F5FC9
:103640007F4F83E00E949219182F811551F00E943C
:10365000A5076093B7037093B8038093B903909361
:10366000BA03812F2496E8E00C94A222A1E0B0E0F6
:10367000ECE3FBE10C948A2281E089838091B10321
:103680008A3088F01092B20300E010E020E030E0D1
:1036900041E050E0BE016F5F7F4F85E00E949219CC
:1036A0008093B20304C08091B203811569F321961F
:1036B000E4E00C94A622A0E0B0E0E1E6FBE10C948B
:1036C00083220E94B10760938503709386038093E1
:1036D00087039093880320912D04D22FD370D115A6
:1036E00019F0D22FD695D69530914401323009F495
:1036F0000AC180F4311116C0109200016093890351
:1037000070938A0380938B0390938C0381E0809362
:10371000440103C0333009F4FEC0CDB7DEB7EBE09F
:103720000C949F2280910401D8131EC023704091F5
:10373000030150E081E02417150609F480E080932E
:1037400002018091320490910101981739F0809321
:10375000010140E060E080E00E944E06D11531F0AA
:10376000D13071F080E030C081E0E9CF809102017A
:103770008115C1F340E060E080E00E944E06F2CF88
:10378000809100010E946E06982EA92EE0902E04D2
:10379000B0902F04E0913004F0E0E258FD4FB110FA
:1037A00025C0E491CE2F1E2F0E2FE92CF12C9091E5
:1037B000DF03AE1411F008F088C081E0911509F420
:1037C0009FC0ABE1AA1670F6909100019F5F9093A5
:1037D00000018111A2CF82E0809344018091020117
:1037E00081119BCFD11199CF83E091CF0E2D10E0A5
:1037F000CB2CD12CE491CE2F26E0E29E7001112437
:103800002FEF30E0C701B9010E94B322000F111F52
:1038100045E5469FC001479F900D1124081B190BD9
:10382000402F440F400FC9018C199D096C01EC9D7C
:10383000C001ED9D900D1124192FB49E600111243B
:10384000CD2CDD24D901AC19BD096D01EC9DD00151
:10385000ED9DB00D11246901C41AD108A601B49ED2
:103860006001B59ED00C1124CD2CDD242C193D090E
:10387000E29FA001E39F500D1124052F63307105D5
:10388000D1F02CEFE21623E0F20658F46130710516
:10389000B1F06230710509F088CFC92F152F0E2FB6
:1038A00084CF6430710571F06630710509F47DCF05
:1038B000092F1B2F7ACF0B2FC92F1E2F76CF0E2F3C
:1038C000CB2F73CFC52F092FF8CFF701EC51FE4F47
:1038D0008081209101018223811571F0F7019111FE
:1038E00005C08BE1E816F1040CF07B97212F402FE7
:1038F0006C2FCF010E94CE069FEFE91AF90A57CF2D
:10390000B6E3AB1660CFD09304012370209303017C
:103910000E94B80969CF80913504811551F048E0C3
:1039200050E067E170E08DE294E00E94FF22109287
:103930003504C0908903D0908A03E0908B03F09007
:103940008C038091DE03811579F00E94A5076C1924
:103950007D098E099F09603171058105910508F483
:10396000DCCE10924401D9CE0E94B107F0CFCDB782
:10397000DEB728970FB6F894DEBF0FBECDBF85B770
:10398000806885BF85B7806885BF84B7877F84BF1F
:103990000FB6F894A89580916000886180936000CC
:1039A000109260000FBE80E890E00FB6F89480930C
:1039B0006100909361000FBE81E08093430183E337
:1039C00096E090939302809392020E9499080E943D
:1039D0005D098091E20084608093E2007894809198
:1039E0009A03811599F08091E9001091EC008F7095
:1039F000179511271795182B1092E9008091E80070
:103A000083FD0E9439151F701093E90082E084BD88
:103A100093E095BD9AEF97BD80936E001092E003FE
:103A20001092E1031092E2031092E30388EC90E01D
:103A30002091E30027FD0EC0AFE3BCE91197F1F739
:103A400000C000000197A1F70E94990810929A0304
:103A500080E001C081E08093DE038093DF038093E8
:103A6000050181110E941A218091050180910501B3
:103A700091E08927880F880F8093960394E0981B24
:103A80009093950384E90E94350686E60E943506E8
:103A900087E90E94350686EC0E9435060EE112E0A9
:103AA00044E2E42E42E0F42EF80181918F018F3F31
:103AB00011F00E943506E016F106B1F788E0EBE957
:103AC000F3E0DF01282F1D922A95E9F7EDE8F3E0F6
:103AD000DF011D928A95E9F780E090E00E94F922CB
:103AE000853E9E4F09F461C065EE7EEF80E090E078
:103AF0000E942D2360E082E090E00E940F2381E08D
:103B000090E090933A048093390461E083E090E080
:103B10000E940F2360E074E184E090E00E942D2376
:103B200060E086E090E00E940F2360E087E090E094
:103B30000E940F2340E050E0BA0188E090E00E942C
:103B4000212360E083E290E00E940F2360E08CE09C
:103B500090E00E940F2360E08DE090E00E940F2330
:103B600019821A821B821C821D821E821F82188665
:103B700048E050E067E170E0CE0101960E94FF222C
:103B800040E050E0BA018FE190E00E94212340E044
:103B900050E0BA018FE090E00E94212340E050E025
:103BA000BA0183E190E00E94212382E090E00E942C
:103BB000F1228093A30384E090E00E94F922909385
:103BC0003F0480933E040E94F517EFEFF6E721E0F3
:103BD000E150F0402040E1F700C000000E94F517DE
:103BE000E091DF0311E0E127EE0FEE0FF0E0E55684
:103BF000FC4F808181FF08C06FEF7FEF80E090E095
:103C00000E942D230E94D30783E090E00E94F122BE
:103C100090E00E94AE020E94CC061093350448E06A
:103C200050E067E170E08DE294E00E94E1221092A2
:103C3000350480912D048430F8F485E080932D04C0
:103C40008091450190914601A091470180932E04F7
:103C500090932F04A09330048FE7809331048FEF6B
:103C60008093320448E050E067E170E08DE294E038
:103C70000E94FF22109235048CE090E00E94F12215
:103C800080932A0410929703843009F073C08091C6
:103C9000DE0381110CC00E941D210E94A5076093C4
:103CA000AC037093AD038093AE039093AF0386E0B3
:103CB00091E090930704809306049CEAC92E93E058
:103CC000D92E28E1A22EB12C33EA832E33E0932E95
:103CD00080919A0310E402E1853009F480C00E94CB
:103CE000F51704EA13E08BE9E82E83E0F82ED701FC
:103CF000F80191918D91CE16DF0609F47AC09817DC
:103D0000C1F32090DE03712CD7016D907D01F80185
:103D100031908F01361439F13624512C44244394C8
:103D2000832D84218115C1F02114B1F059827A824A
:103D30000E9499079C838B83F1E0FD8391E0842DA1
:103D40008621811101C090E09E8349815A816B8157
:103D50007C818D810E9489145394440C26E0521278
:103D6000DFCFF8016292739488E07812CDCF0E9481
:103D7000B10743C084E080932A0489CF80919A03DD
:103D8000843019F10E945B1B109298030FB6F894CF
:103D9000A895A09260000FBE1093600083B7817F4A
:103DA000846083BF83B7816083BF7894889583B72D
:103DB0008E7F83BF0FB6F894A895809160008861CC
:103DC00080936000109260000FBE0E94F517EBE92F
:103DD000F3E0819181113CC08E169F06D1F780914E
:103DE0009A03853009F4CACF0E94AB0C0E94D90611
:103DF00076CF981386CF0E9416158091B203811159
:103E000019C08091DE03811115C04090AC03509021
:103E1000AD036090AE037090AF030E94A5076419D4
:103E2000750986099709653378408105910510F079
:103E30000E94E4070E945B1B0E94D9069091B00388
:103E4000891709F445CF8093B0030E94A50740CF9E
:103E500080919903811519F280E189BD09BD09B4EA
:103E600000FEFDCF8091D8008F7D8093D800809197
:103E7000E00082608093E0008091E00081FDFCCF53
:103E80000E94AB0CACCF1F921FB61F9211248F93D0
:103E90009F93AF93BF9380919803811113C080913A
:103EA000DB029091DC02A091DD02B091DE0241962E
:103EB000A11DB11D8093DB029093DC02A093DD0273
:103EC000B093DE02BF91AF919F918F911F901FBE63
:103ED0001F90189578941F921FB61F9211248F93EC
:103EE0009F93AF93BF938091DB029091DC02A091EE
:103EF000DD02B091DE020196A11DB11D8093DB02AF
:103F00009093DC02A093DD02B093DE02BF91AF91EB
:103F10009F918F911F901FBE1F9018951F920F9217
:103F20000FB60F9211242F933F934F935F936F938C
:103F30007F938F939F93AF93BF93EF93FF93809162
:103F4000E10082FF09C08091E20082FF05C08091FC
:103F5000E1008B7F8093E1008091DA0080FF24C034
:103F60008091D80080FF20C08091DA008E7F8093FE
:103F7000DA008091D90080FFA9C080E189BD82E18B
:103F800089BD09B400FEFDCF81E080939A03809142
:103F9000CA02811109C00E9499080E945D0980919E
:103FA000E20084608093E2008091E10080FF1AC00B
:103FB0008091E20080FF16C08091E2008E7F8093A6
:103FC000E2008091E20080618093E2008091D8005D
:103FD00080628093D80019BC85E080939A0383E0C7
:103FE000809343018091E10084FF2FC08091E20023
:103FF00084FF2BC080E189BD82E189BD09B400FE48
:10400000FDCF8091D8008F7D8093D8008091E10012
:104010008F7E8093E1008091E2008F7E8093E200AA
:104020008091E20081608093E2008091C902811555
:1040300009F452C084E080939A0380919A038430FB
:1040400009F052C082E0809343018091E10083FF38
:104050002CC08091E20083FF28C08091E100877F1F
:104060008093E10082E080939A031092C9028091CC
:10407000E1008E7F8093E1008091E2008E7F80934B
:10408000E2008091E20080618093E20042E060E023
:1040900080E00E942D098091F00088608093F000FC
:1040A00081E08093430180934201FF91EF91BF91A2
:1040B000AF919F918F917F916F915F914F913F91C0
:1040C0002F910F900FBE0F901F90189519BC109252
:1040D0009A031092CA0268CF8091E30087FF02C062
:1040E00083E0A9CF81E0A7CF81E0ADCF1F920F92EF
:1040F0000FB60F921124EF92FF920F931F932F93FD
:104100003F934F935F936F937F938F939F93AF935F
:10411000BF93CF93EF93FF9309EE10E0F8018081F6
:10412000C091EC008F70C795CC27C795C82B108223
:1041300080EFE82EF12CF7018081877F80837894CF
:104140000E943915F8011082F70180818860808310
:10415000CF70F801C083FF91EF91CF91BF91AF91E4
:104160009F918F917F916F915F914F913F912F918F
:104170001F910F91FF90EF900F900FBE0F901F9027
:1041800018958EE14A9B02C08A95E1F74A9BFECFC3
:1041900008955A9880E28A95F1F75A9A0895FC0199
:1041A0003BE03A95F1F798E020E080E031E040E133
:1041B0004A95F1F7880F4A9B02C08160232742E0AD
:1041C0004A95F1F7000040E14A95F1F79A9579F7A1
:1041D00090E19A95F1F799B132E03A95F1F7000044
:1041E00040E14A95F1F792FB992790F992272081B7
:1041F000920F90830895A1E0B0E0E1E0F1E20C9429
:10420000882219828C017C01E60EF11C0E94C120DB
:10421000CE0101960E94CF20F80181938F01EE1507
:10422000FF05A1F781E09981911180E02196E6E0F8
:104230000C94A422529A5A9A089552985A9AEA9A39
:10424000E9E6F0E080818F7C808308956150770BF0
:1042500091E001C0990F6A95EAF7692F90E021E09B
:10426000611108C0911599F05A9A80E28A95F1F788
:104270005A980895362F3823311539F05A9A9227D3
:1042800030E23A95F1F76695EBCF5A98F9CF5A9804
:10429000ECCFFF920F931F93CF93DF93EC018C0130
:1042A000060F111DF9900E94C92068E08F2D0E9411
:1042B0002621C017D107B1F7CDB7DEB7E5E00C94E2
:1042C000A5221F920F920FB60F9211240F931F93E6
:1042D0002F933F934F935F936F937F938F939F930E
:1042E000AF93BF93EF93FF93CF93DF930F92CDB72D
:1042F000DEB719820E94C120CE0101960E94CF2014
:10430000082F069506950695982F92959570202F63
:104310002570920F292F237096959695920F9827C6
:1043200097708981892B811509F05CC0073008F0EE
:1043300059C080E18A95F1F75A9A529A82E08A959B
:10434000F1F700C05A9888E0089F80011124D80135
:10435000A05FBE4F1696ED91FC9117973097A9F08C
:10436000609124027091250214962D913C9115972D
:10437000260F371F11968D919C911297680F791F08
:1043800013964C9113978C910995F801E05FFE4FBD
:104390006381611551F020912402309125028481BE
:1043A0009581820F931F0E9449210E94C92080E1BC
:1043B0008A95F1F75A9852985A9A80E18A95F1F7BE
:1043C000F801E05FFE4F6081611551F020912402F9
:1043D0003091250281819281820F931F0E94FB20E0
:1043E0000E94C1200F90DF91CF91FF91EF91BF917B
:1043F000AF919F918F917F916F915F914F913F917D
:104400002F911F910F910F900FBE0F901F90189535
:104410000F931F93CF93DF938C0107970CF064C029
:10442000F894529A5A9885E08A95F1F70000C02FC7
:10443000C695C570802F8570C80F8C2F8370C69568
:10444000C69593E0000F111F9A95E1F7C80FC801B8
:104450008C2BEC010E94C92000C068E08C2F0E94C8
:10446000262190E19A95F1F752985A9A4A9B35C0C5
:1044700087E090E04A9933C0F801E05FFE4F638126
:10448000611561F02091240230912502848195818B
:10449000820F931F0E94FB20811519F10E94C120F9
:1044A00080E28A95F1F75A98529A90E19A95F1F73D
:1044B000F801E05FFE4F6081611551F02091240208
:1044C0003091250281819281820F931F0E944921A0
:1044D0000E94C920789481E008C000C0C7CF01972E
:1044E00049F4529A5A9A789480E0DF91CF911F91C3
:1044F0000F91089500C0BECF2F923F924F925F92CE
:104500006F927F928F929F92AF92BF92CF92DF92E3
:10451000EF92FF920F931F93CF93DF93CDB7DEB748
:10452000CA1BDB0B0FB6F894DEBF0FBECDBF0994DC
:104530002A88398848885F846E847D848C849B8433
:10454000AA84B984C884DF80EE80FD800C811B8141
:10455000AA81B981CE0FD11D0FB6F894DEBF0FBE70
:10456000CDBFED010895AA1BBB1B51E107C0AA1FD7
:10457000BB1FA617B70710F0A61BB70B881F991F04
:104580005A95A9F780959095BC01CD01089597FBA8
:10459000072E16F4009407D077FD09D00E94B322AD
:1045A00007FC05D03EF4909581959F4F0895709536
:1045B00061957F4F0895EE0FFF1F0590F491E02D58
:1045C0000994DC01CB01FC01F999FECF06C0F2BDD4
:1045D000E1BDF89A319600B40D9241505040B8F7C1
:1045E0000895F999FECF92BD81BDF89A992780B5BB
:1045F0000895A8E1B0E042E050E00C94E322DC0131
:10460000A40FB51F4150504048F0CB01840F951FB7
:104610002E910E94102341505040D0F70895262F2C
:10462000F999FECF92BD81BDF89A019700B40216A8
:1046300039F01FBA20BD0FB6F894FA9AF99A0FBE56
:1046400008950396272F0E9410230E940F23252FE1
:104650000E941023242F0C9410230196272F0E94D0
:1046600010230C940F23FB01DC0104C08D910190F9
:10467000801921F441505040C8F7881B990B0895C8
:10468000FB01DC0102C001900D9241505040D8F76F
:104690000895F894FFCF260D580D5C0D610D650D42
:1046A000670D690D6B0DA90E110FB10E7B0E7F0EFC
:1046B000B50E830EB90EC50E8F0E0A0F930EC90EDE
:1046C000970ECD0EF20E9B0ED10EF90EA10ED70E47
:1046D000DF0E870EBD0E8B0EC10EA50EDB0EE90E92
:1046E000020F080F750EAD0E180F520E560E470E24
:1046F0004E0E5A0E5E0E620E610F740F320F350FA2
:104700007E0F3B0F840F410F8A0F470F900F4D0F05
:10471000960F320F350F7E0F3B0F840F410F8A0F1C
:10472000470F900F4D0F960F1A164016461640165B
:0C47300046169916BB164616B917C61798
:10473C0000FF00FFFF019607180A2F0AEF07360A41
:10474C000000000100000000000000040100000057
:10475C000405000000000000040900000000000037
:10476C00090D000000000000011600000000000010
:10477C00000001000300FF78181712110A0919161E
:10478C0013100B081A15140F0C07FFFFFF0E0D0664
:10479C0033322D2C252434312E2B262335302F2A41
:1047AC002722FFFFFF2928215510320D1014102647
:1047BC00323055345F3F5527551555044402441388
:1047CC004425503A3C373223320D32002103211458
:1047DC002125102A101810070007001800298B102B
:1047EC00AE0DD014D026AE308B34813F8B278B1579
:1047FC008B049C029C139C25903AA437AE23AE0DDF
:10480C00AE00BF03BF14BF25D02AD018D007E007D5
:10481C00E018E0290202020202020104040404046A
:10482C00040101040404040404040404010101024D
:10483C00020202020201040404040404010104043F
:10484C0004040404040404010101946697C6F4F5FD
:10485C00F6F73133C703E200E900EA00B500B60011
:10486C00B700CD008301CC008A0192019401210292
:10487C00230224022502260227022A02B300B400D6
:10488C006F0070009F01CB019F02A002E200E900C3
:10489C00EA00B500B600B700CD008301CC008A0158
:1048AC0092019401210223022402250226022702EE
:1048BC002A02B300B4006F0070009F01CB019F026D
:0248CC00A00248
:00000001FF
